:100000000C944C000C946B000C946B000C946B00E3
:100010000C946B000C946B000C946B000C946B00B4
:100020000C946B000C946B000C946B000C946B00A4
:100030000C946B000C946B000C946B000C946B0094
:100040000C946B000C946B000C946B000C946B0084
:100050000C94C3000C946B000C946B000C946B001C
:100060000C946B000C946B000C946B000C946B0064
:100070000C946B000C946B000C946B000C946B0054
:100080000C946B000C946B000C946B000C94AD0002
:100090000C946B000C946B0011241FBECFEFD0E2C8
:1000A000DEBFCDBF11E0A0E0B1E0E2E6FFE400E09A
:1000B0000BBF02C007900D92AC31B107D9F710E128
:1000C000ACE1B1E001C01D92A63FB107E1F70E948B
:1000D00048270C94AF270C940000259A3E9AA0E87C
:1000E000B0E08C9181688C9320E930E0F901808147
:1000F00081688083E1E8F0E0808189608083E1E9C4
:10010000F0E08081896080831092890010928800DD
:1001100010929900109298008C9181608C931092AB
:10012000850010928400EFE6F0E08081816080839A
:10013000F901808181608083109295001092940073
:10014000E1E7F0E080818160808384E090E090933B
:10015000230180932201789408951F920F920FB685
:100160000F9211248F939F93809188009091890022
:1001700090939900809398009F918F910F900FBE5C
:100180000F901F9018951F920F920FB60F920BB6FB
:100190000F9211242F933F938F939F93EF93FF938D
:1001A00080912201909123010197909323018093E4
:1001B00022018091220190912301892B21F584E075
:1001C00090E090932301809322012091F4103091CC
:1001D000F510F901EC5DFE4F808190E0909389006D
:1001E000809388002F5F3F4F3093F5102093F410D9
:1001F0008091F4109091F510815D9F4020F0109255
:10020000F5101092F410FF91EF919F918F913F9113
:100210002F910F900BBE0F900FBE0F901F9018954F
:1002200080911C01089580911C018823F9F0809130
:1002300081008E7F80938100809191008E7F8093DA
:100240009100809180008E7F8093800080916F006C
:1002500010926F0080919000109290008091710038
:100260001092710010921C01F89478940895DF9216
:10027000EF92FF920F931F93DF93CF9300D0CDB7F0
:10028000DEB77C014CE250E060E070E00E9447087D
:10029000C70164E271E040ED5FE08E010F5F1F4F28
:1002A00098010E948B0B0E946D0081E080931C01DD
:1002B000D02E012F23C08091F4109091F510805D15
:1002C0009F40E0F01092F5101092F410C70164E224
:1002D00071E040ED5FE02D2D302F0E948B0B182F29
:1002E000882329F00E941301212F30E00DC089815D
:1002F0009A81805D9F4010F40E94130180911C013F
:100300008823C9F620E030E0C9010F900F90CF910B
:10031000DF911F910F91FF90EF90DF9008950F9361
:100320001F93CF93DF93EC018B01BA0120E030E003
:100330000EC0FE01E20FF31FD801A20FB31F8D9173
:100340009C9191838083425050402E5F3F4F4230BA
:10035000510578F7CB018E7FFE01E80FF91FD80118
:10036000A80FB91F60FF02C08C918083DF91CF91ED
:100370001F910F910895EF92FF920F931F93CF93C8
:10038000DF93EC017A018B018EEF9FEFAFEFBFEFB0
:10039000E80EF91E0A1F1B1F8E899F89A88DB98D33
:1003A0000297A109B109E816F9060A071B0728F008
:1003B00020E030E040E050E012C02A8130E040E030
:1003C00050E0C801B7010E946E279B01AC018AA5CD
:1003D0009BA5ACA5BDA5280F391F4A1F5B1FB901FE
:1003E000CA01DF91CF911F910F91FF90EF90089577
:1003F000CF93DF93FC019B01AB01475F5F4F868585
:100400009785A089B1890097A105B10571F1C289CD
:10041000D38980E090E06EE2FE01E80FF91FE081F1
:100420000196E03261F0E53009F4E5EE893091059E
:1004300019F4DA016D93AD01DA01ED93AD018B3062
:10044000910551F78B85F90180878C8D9D8DAE8D3F
:10045000BF8D80839183A283B383888D998D95838B
:1004600084838E899F8997838683DA011C92DF912A
:10047000CF910895CF93DF93EC01A881B9811097B4
:1004800019F1FD0101C031968081813218F08A3363
:10049000D1F705C08A3319F020E030E017C08C9105
:1004A000282F332727FD3095205330402A3031053F
:1004B00058F41196AE17BF0739F42115310521F410
:1004C0003196F983E88302C02FEF3FEFC901DF9136
:1004D000CF910895FC010097E1F0A081B1811097C0
:1004E000C1F08C918823A9F016962D913C91179715
:1004F000828193812817390761F411968C910E94AB
:10050000112580FD03C020E030E005C023E030E08D
:1005100002C029E030E0C9010895CF93DF93EC01D8
:100520000E946A029C01009711F419821882C90185
:10053000DF91CF9108958F929F92AF92BF92CF9209
:10054000DF92EF92FF920F931F93CF93DF93EC0113
:100550008C81882309F445C0CEA4DFA4E8A8F9A8BB
:1005600082E3882E912C8C0E9D1E8981B401A701F7
:10057000960101E010E00E942826892B19F021E065
:1005800030E031C01C828AA19BA1ACA1BDA1A70112
:100590009601281B390B4A0B5B0B8A8D9B8DAC8D0A
:1005A000BD8D281739074A075B07D8F48B81A82E21
:1005B000BB2413C08A8D9B8DAC8DBD8DC80ED91EFA
:1005C000EA1EFB1E8981B401A701960101E010E03B
:1005D0000E9428260894A108B10882E0A816B10458
:1005E00048F720E030E0C901DF91CF911F910F91D2
:1005F000FF90EF90DF90CF90BF90AF909F908F9043
:100600000895AF92BF92CF92DF92EF92FF920F9335
:100610001F93CF93DF935C016A017B01FC0186A5E8
:1006200097A5A0A9B1A9481759076A077B0719F42C
:10063000C0E0D0E01EC0C5010E949B02EC01009703
:10064000C1F4B5016E5C7F4FF5018181A701960170
:1006500001E010E00E94D825892B31F0CC24CA9407
:10066000DC2C7601C1E0D0E0F501C6A6D7A6E0AA51
:10067000F1AACE01DF91CF911F910F91FF90EF90E2
:10068000DF90CF90BF90AF900895CF93DF93EC01B0
:100690001C828FEF9FEFAFEFBFEF8EA79FA7A8AB96
:1006A000B9ABCE010E940103892B11F023E029C0D0
:1006B000C05DDD4F88819981C053D24085559A4AEB
:1006C00011F022E01EC0C859DF4F88819981AA81AC
:1006D000BB81C856D040B07086549144A445B04008
:1006E00011F420E00EC020E0CC57DF4F88819981C3
:1006F000AA81BB81B07086549144A445B04009F0F2
:1007000021E0822FDF91CF9108956F927F928F9297
:100710009F92AF92BF92CF92DF92EF92FF920F9390
:100720001F93CF93DF935C016A017B01380149017C
:10073000423051056105710508F4D1C0F501868983
:100740009789A08DB18D481759076A077B0708F074
:10075000C6C08081823009F46CC0833009F489C03E
:10076000813009F0BCC0EA01D695C795C40FD51FEA
:10077000AE01452F5527469560E070E0F50182A156
:1007800093A1A4A1B5A1480F591F6A1F7B1FC501E2
:100790000E940103AC01009709F0A3C0DE01B17013
:1007A00021968601017010700115110551F0F501B7
:1007B000EA0FFB1F82A98F70962D9295907F982B40
:1007C00001C0962DAA0DBB1DD2969C9381E0F50128
:1007D0008483AE01452F5527469560E070E082A1E5
:1007E00093A1A4A1B5A1480F591F6A1F7B1FC50182
:1007F0000E940103AC01009709F073C0D170012B76
:1008000049F0E4E09694879477946794EA95D1F759
:10081000662D0BC0F501EC0FFD1F62A9607FBB27A1
:10082000A92D982D872D8F70682BCA0DDB1D6AAB03
:1008300052C077276F2D5E2D4D2DF50182A193A11A
:10084000A4A1B5A1480F591F6A1F7B1FC5010E94B3
:100850000103AC01009709F044C0CC0CDD1CEE1C78
:10086000FF1CF601F170F296EA0DFB1D71826082A9
:1008700032C027E076956795579547952A95D1F729
:10088000F50182A193A1A4A1B5A1480F591F6A1F28
:100890007B1FC5010E940103AC01009711F592E096
:1008A000CC0CDD1CEE1CFF1C9A95D1F7F601F17003
:1008B000F296EA0DFB1D80819181A281B381807047
:1008C0009070A070B07F86299729A829B9298083C4
:1008D0009183A283B38381E0F501848302C042E067
:1008E00050E0CA01DF91CF911F910F91FF90EF90DF
:1008F000DF90CF90BF90AF909F908F907F906F9040
:100900000895BF92CF92DF92EF92FF920F931F93C1
:10091000CF93DF936C017A018B0142305105610561
:10092000710508F4ACC0F60186899789A08DB18D58
:10093000481759076A077B0708F0A1C080818230F9
:1009400009F457C0833009F474C0813009F097C0AE
:10095000EA01D695C795C40FD51FAE01452F55277F
:10096000469560E070E0F60182A193A1A4A1B5A133
:10097000480F591F6A1F7B1FC6010E940103892B64
:1009800009F082C0FE01F170EC0DFD1DB2A82196A8
:10099000AE01452F5527469560E070E0F60182A133
:1009A00093A1A4A1B5A1480F591F6A1F7B1FC601BF
:1009B0000E940103892B09F067C06B2D70E0D17094
:1009C000CC0DDD1D9AA980E0682B792BC7018170C1
:1009D0009070892B39F044E0769567954A95E1F758
:1009E0009B0124C09B0140E050E03F70407050707C
:1009F0004FC0452F562F672F7727F60182A193A16D
:100A0000A4A1B5A1480F591F6A1F7B1FC6010E94F0
:100A10000103892BC9F5EE0CFF1C001F111FF70104
:100A2000F170EC0DFD1D82A993A99C0140E050E0FE
:100A30002FC097E076956795579547959A95D1F78A
:100A4000F60182A193A1A4A1B5A1480F591F6A1F65
:100A50007B1FC6010E940103892BB1F482E0EE0CDA
:100A6000FF1C001F111F8A95D1F7F701F170EC0DE3
:100A7000FD1D22A933A944A955A95F7009C021E031
:100A800030E040E050E004C02FEF3FEF4FEF5FEF6A
:100A9000B901CA01DF91CF911F910F91FF90EF90A3
:100AA000DF90CF90BF9008956F927F928F929F9228
:100AB000AF92BF92CF92DF92EF92FF920F931F936C
:100AC000CF93DF933C014B01DC0115967C936E9331
:100AD00014971696ED90FD900D911C911997B1E029
:100AE000EB16F1040105110509F4C5C0DC01ED9117
:100AF000FC9186899789A08DB18DE816F9060A07C1
:100B00001B0708F0B8C0E114F10401051105C1F498
:100B10008081833041F486A197A1A0A5B1A500975B
:100B2000A105B10559F4808591858816990608F0CC
:100B3000A2C026A137A140A551A567C07C018D01A7
:100B40008281C82EDD2484E0CC0CDD1C8A95E1F77F
:100B500027C0CE01B801A7010E9481047B018C014E
:100B60006F3FBFEF7B07BFEF8B07BFEF9B0719F40A
:100B700021E030E082C0623071058105910508F402
:100B80007AC0D301ED91FC9186899789A08DB18DB2
:100B9000E816F9060A071B0708F06DC08C189D08B7
:100BA000F301C081D1818C149D0498F6BEEFAB2E69
:100BB000BFEFBB2EBFEFCB2EBFEFDB2EAE0CBF1CAB
:100BC000C01ED11E8E899F89A88DB98D0297A1095B
:100BD000B109A816B906CA06DB0628F020E030E005
:100BE00040E050E012C02A8130E040E050E0C60111
:100BF000B5010E946E279B01AC018AA59BA5ACA5FF
:100C0000BDA5280F391F4A1F5B1FD3011A96ED920D
:100C1000FD920D931C931D9721153105410551053A
:100C200051F1C401A4E096958795AA95E1F7A0E05B
:100C3000B0E0820F931FA41FB51FF301868797872B
:100C4000A08BB18BFFE08F229924F5E0880C991CD2
:100C5000FA95E1F782E390E0880E991ED3018D9119
:100C60009C911197880D991D53969C938E93529742
:100C700020E030E002C022E030E0C901DF91CF91F6
:100C80001F910F91FF90EF90DF90CF90BF90AF90AA
:100C90009F908F907F906F9008954F925F926F9288
:100CA0007F928F929F92AF92BF92CF92DF92EF92FC
:100CB000FF920F931F93CF93DF93EC012A013B0127
:100CC000411551056105710599F48A849B84AC84B2
:100CD000BD8481149104A104B10451F18E899F89CE
:100CE000A88DB98D88169906AA06BB0608F525C0F9
:100CF0000E9481049B01AC01623071058105910560
:100D000008F494C02F3F8FEF38078FEF48078FEF1D
:100D1000580709F499C08E899F89A88DB98D281725
:100D200039074A075B0708F48FC05301420105C029
:100D300021E0822E912CA12CB12C75016401089424
:100D4000C11CD11CE11CF11C8E899F89A88DB98D15
:100D5000C816D906EA06FB0660F022E08216910466
:100D6000A104B10408F46CC092E0C92ED12CE12C8E
:100D7000F12CCE01B701A6010E9481049B01AC01B8
:100D80006115710581059105A9F02F3F8FEF380797
:100D90008FEF48078FEF580709F456C0213031050F
:100DA0004105510509F450C0C814D904EA04FB04F4
:100DB00031F646C0BC2CAD2C9E2C8F2CCE01A6014A
:100DC000B7010FEF1FEF2FEF3FE00E948503009761
:100DD00059F5411451046104710449F0CE01B30185
:100DE000A201860197010E9485030097E9F4BA8663
:100DF000AB869C868D868E859F85A889B9898F3F15
:100E00002FEF92072FEFA2072FEFB20751F00197B4
:100E1000A109B1098E879F87A88BB98B8D818160CD
:100E20008D83A701960110C0019729F021E030E0E1
:100E300040E050E009C02FEF3FEF4FEF5FEF04C0FD
:100E400020E030E040E050E0B901CA01DF91CF91ED
:100E50001F910F91FF90EF90DF90CF90BF90AF90D8
:100E60009F908F907F906F905F904F900895AF927A
:100E7000BF92CF92DF92EF92FF920F931F93CF9387
:100E8000DF93EC017A018B01423051056105710558
:100E900008F459C08E899F89A88DB98D48175907C4
:100EA0006A077B0708F444C04EC0CE01B801A70111
:100EB0000E9481045B016C0161157105810591053A
:100EC00009F444C081E0A816B104C104D104D9F1E9
:100ED0002FEFA2162FEFB2062FEFC2062FEFD2068A
:100EE00019F421E030E034C0CE01B801A70100E0E0
:100EF00010E020E030E00E9485039C01009741F55E
:100F00008E859F85A889B9898F3F2FEF92072FEF94
:100F1000A2072FEFB20751F00196A11DB11D8E87D8
:100F20009F87A88BB98B8D8181608D838601750128
:100F30008E899F89A88DB98DE816F9060A071B07C7
:100F400008F4B3CF03C022E030E002C020E030E07C
:100F5000C901DF91CF911F910F91FF90EF90DF902A
:100F6000CF90BF90AF900895CF92DF92EF92FF9213
:100F70000F931F93CF93DF93EC010E946A028C01C1
:100F8000009709F076C08D81882331F0282F30E05A
:100F90002115310539F06EC08C8181FD03C027E039
:100FA00030E068C02E813F81488559858A859B85C0
:100FB000AC85BD85281739074A075B0708F059C07B
:100FC0002A873B874C875D878C8180628C838881F0
:100FD0009981211531054105510561F44E855F85E3
:100FE000688979890E9437079C011E861F86188AA6
:100FF000198A3AC04A895B896C897D890E9481047B
:101000006B017C018FEFC8168FEFD8068FEFE806D3
:101010008FEFF80619F421E030E029C081E0C8160E
:10102000D104E104F10481F1E881F981868997898D
:10103000A08DB18DC816D906EA06FB06D0F44A8900
:101040005B896C897D89CF010FEF1FEF2FEF3FE0A8
:101050000E9485039C01009751F488819981B70112
:10106000A6010E9437079C012115310519F02D8337
:1010700001C09801C901DF91CF911F910F91FF909D
:10108000EF90DF90CF90089522E030E0F0CF2F92E4
:101090003F924F925F926F927F928F929F92AF9208
:1010A000BF92CF92DF92EF92FF920F931F93DF9345
:1010B000CF9300D000D000D0CDB7DEB79E838D8314
:1010C0007A018B010E946A029A838983892B09F035
:1010D000B7C1AD81BE8115968C91882319F0E82F98
:1010E000F0E09DC0AD81BE811A966D907D908D908F
:1010F0009C901D976E147F048006910620F4149630
:101100008C9181FF02C037014801ED81FE81E680AC
:10111000F78000851185168217821086118661146A
:1011200071048104910409F458C10190F081E02D0B
:10113000FC83EB838281A82EBB24CC24DD24F9E040
:10114000AA0CBB1CCC1CDD1CFA95D1F7E114F104F0
:1011500001051105C1F11701280108942108310882
:1011600041085108C401B301615070408040904073
:10117000A60195010E948D2779018A01C201B10162
:10118000A60195010E948D27E216F30604071507B4
:10119000D0F088279927DC018A199B09AC09BD0981
:1011A00082219321A421B521ED81FE81868397833D
:1011B000A087B187681A790A8A0A9B0A42895389EB
:1011C000648975893DC0AD81BE811E964D915D914A
:1011D0006D917C915197411551056105710551F54E
:1011E0008B819C8140E050E060E070E00E944D0601
:1011F000AB01BC01413051056105710509F465C0C1
:101200004F3F3FEF53073FEF63073FEF730751F443
:1012100081E0AD81BE8115968C93E1E0F0E0FA8328
:10122000E9830EC1AD81BE811E964D935D936D9392
:101230007C935197ED81FE81428B538B648B758B30
:10124000411551056105710509F060C0C6C0AD8149
:10125000BE8114968C9114972D913C9181FF0DC005
:10126000C9010E944D06AB01BC0141155105610544
:10127000710541F4350146014FC0C9010E94810446
:10128000AB01BC014F3FBFEF5B07BFEF6B07BFEF89
:101290007B0749F481E0ED81FE81858321E030E028
:1012A0003A832983CDC0423051056105710568F04C
:1012B000AD81BE81ED91FC9186899789A08DB18D1C
:1012C000481759076A077B0738F082E0ED81FE81F5
:1012D000858322E030E0E4CFAD81BE8152964D930C
:1012E0005D936D937C935597ED81FE818681978107
:1012F000A085B1858A0D9B1DAC1DBD1D868397837E
:10130000A087B1876A187B088C089D08A614B704CB
:10131000C804D90408F49BCFED81FE8186819781B2
:10132000A085B185860D971DA81DB91D868397835D
:10133000A087B187D401C3019170A070B0700097ED
:10134000A105B10509F449C0C080D180EEEFEE2EB1
:10135000EFEFFE2EEFEF0E2FEFEF1E2FE40EF51E38
:10136000061F171FF60186899789A08DB18D0297F8
:10137000A109B109E816F9060A071B07C0F4228182
:1013800030E040E050E0C801B7010E946E279B01A9
:10139000AC01F60182A593A5A4A5B5A5280F391F18
:1013A0004A1F5B1F211531054105510541F482E0BB
:1013B000AD81BE8115968C93E2E0F0E030CF8401E0
:1013C000730169E016950795F794E7946A95D1F74C
:1013D000E20EF31E041F151F03C0EE24FF24870135
:1013E000ED81FE8186819781A085B1859170A07085
:1013F000B0700097A105B10569F086899789A08D25
:10140000B18DE816F9060A071B0721F0E68AF78A6C
:10141000008F118FED81FE812681378140855185B6
:1014200082859385A485B58582179307A407B507A0
:1014300038F4228733874487558784818062848388
:1014400089819A8126960FB6F894DEBF0FBECDBF74
:10145000CF91DF911F910F91FF90EF90DF90CF9090
:10146000BF90AF909F908F907F906F905F904F90C4
:101470003F902F9008952F923F924F925F926F92DC
:101480007F928F929F92AF92BF92CF92DF92EF9214
:10149000FF920F931F93CF93DF93EC012B014A012F
:1014A0003901D9011D921C920E946A025C010097C9
:1014B00009F0F0C08D81882319F0A82EBB24EAC062
:1014C0008C8180FD04C087E0A82EB12CE3C02A8562
:1014D0003B854C855D858E819F81A885B985281BBC
:1014E000390B4A0B5B0BC401A0E0B0E028173907A9
:1014F0004A075B0708F0BFC04901BDC02E813F818C
:1015000048855985E881F981DA01C90109E0B69574
:10151000A795979587950A95D1F7128111501823B1
:10152000DA01C9019170A070B0700097A105B105F2
:1015300031F5112321F5211531054105510529F416
:101540006E857F858889998907C04A895B896C89FE
:101550007D89CF010E94810462307105810591056A
:1015600008F46AC06F3FBFEF7B07BFEF8B07BFEF89
:101570009B0709F441C06A8B7B8B8C8B9D8BC88049
:10158000D9802A893B894C895D892250304040406E
:101590005040F60186899789A08DB18D0297A109E7
:1015A000B109281739074A075B0708F045C062816F
:1015B00070E080E090E00E946E27AB01BC01F60174
:1015C00082A593A5A4A5B5A5480F591F6A1F7B1F27
:1015D000411551056105710579F1DB01CA01810FE2
:1015E000911DA11DB11D7C018D01C601B801A7018E
:1015F0000E940103892B31F081E08D8311E0A12E3F
:10160000B12C48C0EE8AFF8A088F198F2E813F8146
:101610003170A101421B530BB4014815590508F460
:10162000BA012E5C3F4F88819981820F931FF2018E
:101630000995BC01009731F482E08D83B2E0AB2EB6
:10164000B12C28C0A0E0B0E02E813F8148855985AB
:10165000280F391F4A1F5B1F2E833F8348875987F6
:10166000D3018D919C911197860F971F8D939C9319
:10167000861A970A03C0212CA2E03A2E8114910405
:1016800049F080E090E060E070E0F2010995892B7C
:1016900009F034CFC501DF91CF911F910F91FF90D9
:1016A000EF90DF90CF90BF90AF909F908F907F9002
:1016B0006F905F904F903F902F900895CF93DF935E
:1016C000EC016C817D810E945405AC010097F9F416
:1016D0004E855F8568897989888199810E94010397
:1016E000AC010097A1F4EA89FB8920E230E001C057
:1016F0001192215030408FEF2F3F3807C9F7EA8908
:10170000FB8985EE8083E881F98181E08483CA01C9
:10171000DF91CF9108952F923F924F925F926F92F7
:101720007F928F929F92AF92BF92CF92DF92EF9271
:10173000FF920F931F93DF93CF9300D000D0CDB7CC
:10174000DEB79C838B83162F072F2A013A832983C8
:10175000D9011D921C928B819C810E946A023C01DE
:10176000009709F072C1EB81FC818581882319F013
:10177000682E77246AC1AB81BC8114968C9180FD60
:1017800004C007E0602E712C60C1EB81FC812285D2
:1017900033854485558586819781A085B185281B31
:1017A000390B4A0B5B0BC201A0E0B0E028173907E8
:1017B0004A075B0708F42901812F902F9C0119012A
:1017C00040C1AB81BC8116962D913D914D915C91AC
:1017D0001997DA01C9019170A070B0700097A10546
:1017E000B10509F0DAC0AB81BC81ED91FC91DA0161
:1017F000C90119E0B695A795979587951A95D1F7E0
:1018000092809A94982281F5211531054105510560
:1018100039F4EB81FC8166857785808991890BC0DD
:10182000AB81BC8152964D915D916D917C915597A4
:10183000CF010E948104623071058105910528F471
:1018400082E0EB81FC81858347C06F3FFFEF7F071C
:10185000FFEF8F07FFEF9F0709F467C0EB81FC8163
:10186000628B738B848B958BAB81BC810D911C91AA
:10187000119752962D913D914D915C915597225023
:10188000304040405040F80186899789A08DB18D45
:101890000297A109B109281739074A075B07B8F46D
:1018A0008280682D70E080E090E00E946E279B01AE
:1018B000AC01F80182A593A5A4A5B5A5280F391FF1
:1018C0004A1F5B1F211531054105510549F482E08E
:1018D000AB81BC8115968C93E2E06E2E712CB5C065
:1018E00069017A01C90CD11CE11CF11C5201AB2C1D
:1018F000BB24A694A114B10409F449C0292D30E0F9
:10190000C501820F931F682D70E06817790718F4DE
:101910005B01A21AB30AF8018181B101A701960106
:1019200085010E94D825892B31F081E0AB81BC81F3
:1019300015968C934AC0AB81BC81ED91FC9184815A
:10194000882301F126A537A540A951A92C193D09E5
:101950004E095F09C501A0E0B0E0281739074A0722
:101960005B0780F469E0220F331F441F551F6A95FF
:10197000D1F7C101820F931FF296BF0140E052E000
:101980000E948F018501102F0027110F3DC0EB81B0
:10199000FC81C68AD78AE08EF18EAB81BC81169617
:1019A000ED90FD900D911C91199756964D915D917A
:1019B0006D917C9159978D919C910E940103892B87
:1019C00041F081E0EB81FC81858391E0692E712CEF
:1019D0003CC0C701917020E032E0281B390B820126
:1019E0002415350508F48901AB81BC8116968D91CB
:1019F0009C9117979170C2966D917C91680F791F99
:101A0000C101A8010E948F01200E311EC801A0E073
:101A1000B0E0EB81FC812681378140855185280F1C
:101A2000391F4A1F5B1F2683378340875187E9810F
:101A3000FA8180819181800F911F91838083401A68
:101A4000510A4114510409F0BCCEC3010F900F900C
:101A50000F900F90CF91DF911F910F91FF90EF901A
:101A6000DF90CF90BF90AF909F908F907F906F90BE
:101A70005F904F903F902F9008954F925F926F929A
:101A80007F928F929F92AF92BF92CF92DF92EF920E
:101A9000FF920F931F93DF93CF9300D000D0CDB769
:101AA000DEB76C015B014A017C0100E010E00894A4
:101AB000A108B10883E0482E512C4C0E5D1E3E015A
:101AC0000894611C711C13C0C401B30141E050E0D3
:101AD00092010E948B0B8B819C81019759F4898123
:101AE000F70181937F010F5F1F4F8A3019F00A15AC
:101AF0001B0554F3F7011082012B11F4CC24DD24D3
:101B0000C6010F900F900F900F90CF91DF911F9112
:101B10000F91FF90EF90DF90CF90BF90AF909F908C
:101B20008F907F906F905F904F9008954F925F924B
:101B30006F927F928F929F92AF92BF92CF92DF92DD
:101B4000EF92FF920F931F93CF93DF93EC016B0102
:101B50006C807D800894611C711C6114710409F40F
:101B60004EC18E859F85A889B9890097A105B105C9
:101B700009F445C11FE0412E512C46205720411445
:101B8000510409F028C10196A11DB11D8E879F87C0
:101B9000A88BB98B4A855B856C857D85E881F98149
:101BA000411551056105710539F4808591856816E7
:101BB000790608F410C123C1828190E00197930156
:101BC000A4E036952795AA95E1F782239323892BE4
:101BD00009F001C1CF010E9481047B018C016230B8
:101BE00071058105910508F40DC18FEFE8168FEF9F
:101BF000F8068FEF08078FEF180709F406C1E88190
:101C0000F98186899789A08DB18DE816F9060A07B2
:101C10001B0708F4A7C0CD2809F4F1C04A855B85ED
:101C20006C857D85CF010E944D067B018C0161157D
:101C300071058105910519F427E030E0E8C091E0D5
:101C4000E916F1040105110509F4DCC0AFEFEA164D
:101C5000AFEFFA06AFEF0A07AFEF1A0709F4D5C0E6
:101C6000888199810E949B02892B09F0CEC0E8816E
:101C7000F981F29680E092E001C011920197BFEFE6
:101C80008F3F9B07D1F7888099802EEFA22E2FEFF0
:101C9000B22E2FEFC22E2FEFD22EAE0CBF1CC01EC5
:101CA000D11EF40186899789A08DB18D0297A10973
:101CB000B109A816B906CA06DB0628F020E030E014
:101CC00040E050E015C0D40112962C9130E040E085
:101CD00050E0C601B5010E946E279B01AC01F401E2
:101CE00082A593A5A4A5B5A5280F391F4A1F5B1F80
:101CF000D4019E962D933D934D935C93D197CC2424
:101D0000DD24BB24B39418C0B482888199810E94D9
:101D10009B02892B09F079C0E881F98186A597A5F6
:101D2000A0A9B1A90196A11DB11D86A797A7A0AB37
:101D3000B1AB0894C11CD11CE881F981828190E08B
:101D4000C816D90608F3960140E050E086A597A58D
:101D5000A0A9B1A9821B930BA40BB50B86A797A7CB
:101D6000A0ABB1ABEA86FB860C871D87C880D98003
:101D70008EEF9FEFAFEFBFEFE80EF91E0A1F1B1F9C
:101D8000F60186899789A08DB18D0297A109B109C5
:101D9000E816F9060A071B0728F020E030E040E0CB
:101DA00050E015C0D60112962C9130E040E050E092
:101DB000C801B7010E946E279B01AC01F60182A504
:101DC00093A5A4A5B5A5280F391F4A1F5B1F2E8711
:101DD0003F87488B598B7D826C8295E0440C551C63
:101DE0009A95E1F782E390E0480E591E8881998127
:101DF000840D951D9B8B8A8B20E030E008C024E089
:101E000030E005C022E030E002C021E030E0C9014E
:101E1000DF91CF911F910F91FF90EF90DF90CF90C6
:101E2000BF90AF909F908F907F906F905F904F90FA
:101E300008959F92AF92BF92CF92DF92EF92FF925E
:101E40000F931F93CF93DF93EC018B01FB018081F4
:101E50008F3211F08C3539F40F5F1F4F1E821F82B5
:101E6000188619860AC0E881F98182899389A48934
:101E7000B5898E839F83A887B987F80180818032D6
:101E800060F4CE0160E070E00E945405AC011B8A52
:101E90001A8A56C10F5F1F4F04C0A0E2CA2EF5E098
:101EA0009F2EF80180818F32A9F38C3599F3EC884D
:101EB000FD88F7018BE090E001C0C19201972FEF00
:101EC0008F3F9207D1F7F80180818E3249F040E0D0
:101ED00050E0A0E0B0E0E8E0AE2EB12CDD2421C05F
:101EE000D70180E090E0F801E80FF91FE08101964A
:101EF000EE3231F48330910509F41DC1ED93F3CF37
:101F0000EF3229F0EC3539F0E13208F014C1E1325A
:101F100010F424E201C020E2080F191FF701238703
:101F20001CC1F801EA0FFB1F20811196213208F431
:101F30006AC02F3209F41BC12C3509F418C12E32A6
:101F400019F04A155B0580F0F8E0AF16B10409F00E
:101F5000F2C02E3209F0EFC0DD0CDD0C48E050E09D
:101F60007BE0A72EB12CDDCF27FF02C083E0D82A6B
:101F7000822F81588F3118F08F558D31F8F4F80188
:101F8000EA0FFB1F3081832F80548F3320F0805461
:101F90008D3708F0D0C0C50101974817590708F0E0
:101FA000CAC01196F701E40FF51F2083CA010196FC
:101FB000F701E80FF91F3083AC0122C0622F70E0F7
:101FC000E0E0F1E001C031968081882339F0992763
:101FD00087FD909586179707B1F7ADC0822F815482
:101FE0008A3118F4E2E0DE2A07C0822F81568A3156
:101FF00018F4F1E0DF2A2052F701E40FF51F2083E7
:102000004F5F5F4F8ECF64E0452B09F494C0F7011A
:102010008081853E09F49082F8E0AF16B10411F496
:10202000DD0CDD0C2D2D30E0C9018370907001971F
:1020300009F460612C7030702430310509F4686057
:102040000A0F1B1FF701638788C04E855F8568896B
:102050007989888199810E940103AC01009729F553
:10206000EA89FB898081882319F444E050E01DC08F
:10207000838583FD14C0DF018C899D899C01F90152
:102080002BE030E0215030408FEF2F3F380769F0D0
:102090009C918081981719F411963196F3CFCE0157
:1020A00060E070E00E94960D5DC0EC89FD8983853B
:1020B00041155105C9F04430510509F041C090E087
:1020C0009C012470307085FF0CC01E821F82188610
:1020D00019861B8A1A8A232B09F4E3CE40E050E0CC
:1020E0002FC0232B59F12CC082FD2AC0AA89BB899D
:1020F0001B968C911B9784FF21C05A968D919C91C1
:102100005B979C0140E050E0E881F9818081833059
:1021100069F454968D919C915597A0E0B0E0DC0154
:1021200099278827282B392B4A2B5B2B2E833F831B
:1021300048875987B6CE46E050E002C045E050E0FF
:10214000CA01DF91CF911F910F91FF90EF90DF9027
:10215000CF90BF90AF909F900895CE0160E070E067
:102160000E945405AC01009709F46FCF9ECF60E048
:102170004BCF0F931F93CF93DF938C0160E070E000
:102180000E945405EC010097F1F4D8011E964D9180
:102190005D916D917C9151978D919C910E9401036D
:1021A000EC01009781F4D8015296ED91FC91539780
:1021B000E081E53E81F1EE2371F1C80161E070E05C
:1021C0000E94960DDFCFC430D105F9F4C7E0D0E00E
:1021D0001CC0D8015296ED91FC91539780E290E09B
:1021E00001C011920197BFEF8F3F9B07D1F7F80114
:1021F00064897589828993894BE050E00E948F0140
:10220000D801ED91FC9181E08483CE01DF91CF91E3
:102210001F910F910895F80146855785608971894E
:10222000808191810E940103EC01009791F2EDCF32
:102230000F931F93CF93DF93EC018B0124E030E0E9
:1022400025C0888199810E9401039C01009751F566
:10225000EA89FB898081882379F19385853E71F035
:10226000892F8F738F3051F040E050E08F718830AC
:1022700011F441E050E040175107C1F0CE0160E099
:1022800070E00E94960D9C01009761F44E855F8579
:1022900068897989411551056105710591F6211506
:1022A000310521F01E861F86188A198AC901DF911F
:1022B000CF911F910F91089524E030E0F3CFEF927A
:1022C000FF920F931F93DF93CF93CDB7DEB72C9779
:1022D0000FB6F894DEBF0FBECDBF8C017B010E940C
:1022E0006A02009741F4E114F10439F4C80160E096
:1022F00070E00E9454059C012AC0CE010196F801AD
:10230000958B848BC80160E070E00E9418119C01DD
:102310008430910531F4F80116861786108A118AE7
:1023200002C00097A1F4C801B7010E94F801C801DA
:1023300060E070E00E94960D9C018430910539F4B4
:10234000F80116861786108A118A20E030E0C9014C
:102350002C960FB6F894DEBF0FBECDBFCF91DF91A4
:102360001F910F91FF90EF9008952F923F924F92FF
:102370005F926F927F928F929F92AF92BF92CF9215
:10238000DF92EF92FF920F931F93DF93CF9300D0D2
:1023900000D0CDB7DEB79C838B83162F072F2A0181
:1023A0003A832983D9011D921C928B819C810E94C2
:1023B0006A024C01009709F0F5C1EB81FC8185812F
:1023C000882319F0882E9924EDC1AB81BC81149625
:1023D0008C9181FD04C077E0872E912CE3C1EB81C5
:1023E000FC812681378140855185C201A0E0B0E0A3
:1023F000820F931FA41FB51F82179307A407B50769
:1024000010F444245524812F902F9C011901A5C15B
:10241000AB81BC8116962D913D914D915C911997A0
:10242000DA01C9019170A070B0700097A105B105E3
:1024300009F038C1AB81BC81ED91FC91DA01C90191
:1024400069E0B695A795979587956A95D1F77280BB
:102450007A94782209F054C02115310541055105BF
:1024600099F4AB81BC811E962D913D914D915C916B
:1024700051972115310541055105C9F4CF0140E0BF
:1024800050E060E070E009C0AB81BC8152964D9194
:102490005D916D917C915597CF010E944D069B01F6
:1024A000AC01611571058105910509F45AC121300E
:1024B00031054105510529F482E0EB81FC818583DA
:1024C00071C02F3FFFEF3F07FFEF4F07FFEF5F07A1
:1024D00009F4D4C0EB81FC81228B338B448B558B68
:1024E00086859785A089B1890097A105B10541F43A
:1024F000AB81BC811E962D933D934D935C93519778
:10250000AB81BC81ED91FC91119726A537A540A91F
:1025100051A95696ED90FD900D911C9159972E154D
:102520003F054007510731F4CF010E949B02892BE0
:1025300009F0CCC0AB81BC810D911C9111975296D2
:102540002D913D914D915C915597225030404040E6
:102550005040F80186899789A08DB18D0297A10915
:10256000B109281739074A075B07B8F46280662D5E
:1025700070E080E090E00E946E279B01AC01F801C2
:1025800082A593A5A4A5B5A5280F391F4A1F5B1FD7
:10259000211531054105510549F482E0AB81BC812B
:1025A00015968C9332E0832E912CFCC069017A0140
:1025B000C70CD11CE11CF11C5201AB2CBB24A6940E
:1025C000A114B10409F446C0272D30E0C501820FE3
:1025D000931F662D70E06817790718F45B01A21A43
:1025E000B30AF8018181B101A701960185010E941A
:1025F0002826892B09F042C0AB81BC81ED91FC916A
:1026000026A537A540A951A92C193D094E095F09F6
:10261000C501A0E0B0E0281739074A075B07A8F416
:1026200099E0220F331F441F551F9A95D1F7B1012E
:10263000620F731FCF01C29640E052E00E948F01EB
:10264000AB81BC81ED91FC9114828501102F002794
:10265000110F66C0EB81FC81268137814085518551
:1026600082859385A485B585281739074A075B07B6
:1026700098F0C8010E949B02892B31F081E0AB8168
:10268000BC8115968C9326C0AB81BC81ED91FC91E9
:10269000C6A6D7A6E0AAF1AAEB81FC81C68AD78A92
:1026A000E08EF18EAB81BC811696ED90FD900D9180
:1026B0001C91199756964D915D916D917C9159970A
:1026C0008D919C910E940103892B41F081E0EB8167
:1026D000FC818583B1E08B2E912C64C0C701917081
:1026E00020E032E0281B390B82012415350508F45F
:1026F0008901AB81BC8116962D913C911797317061
:102700002E5C3F4F8D919C91820F931FB101A801C8
:102710000E948F01AB81BC81ED91FC91B1E0B4834B
:10272000200E311EC801A0E0B0E0EB81FC812681C3
:10273000378140855185280F391F4A1F5B1F26832B
:10274000378340875187E981FA8180819181800FA9
:10275000911F91838083401A510A4114510409F05A
:1027600057CEAB81BC8116962D913D914D915C91D8
:1027700019971A968D919D910D90BC91A02D82175D
:102780009307A407B50730F4EB81FC8122873387D8
:1027900044875587AB81BC8114968C9114978062D5
:1027A00014968C93C4010F900F900F900F90CF91BF
:1027B000DF911F910F91FF90EF90DF90CF90BF902E
:1027C000AF909F908F907F906F905F904F903F90D1
:1027D0002F900895EF92FF920F931F93DF93CF9363
:1027E00000D0CDB7DEB78C01FC014281538157FD8B
:1027F0002AC0E40FF51F66837A010894E11CF11CDE
:10280000FDE3EF16F104BCF0BC016A5F7F4FFC01F1
:1028100080819181A7019E012F5F3F4F0E94B511DA
:1028200089819A818E159F0521F0EE24EA94FE2C71
:1028300002C0EE24FF24F801F382E28284819581B4
:102840000196958384830F900F90CF91DF911F9114
:102850000F91FF90EF9008952F923F924F925F92C9
:102860006F927F928F929F92AF92BF92CF92DF92A0
:10287000EF92FF920F931F93DF93CF93CDB7DEB705
:10288000CC55D0400FB6F894DEBF0FBECDBFE59655
:102890006EAC7FACE597E3968EAD9FADE3979C8BD6
:1028A0008B8B1E8A1D8A188E1F8A65E7E62EF12CF7
:1028B000EC0EFD1E5DE2252E01C07201D3016C916C
:1028C000662309F47FC10894611C711C653219F0FC
:1028D000CE014396AFC0F301B1903F01F0E3BF16C4
:1028E00031F4D301BD903D01332433940AC0BDE2DD
:1028F000BB1611F0332405C0F301B1903F0142E053
:10290000342E8824992417C0C40133E0880F991FFE
:102910003A95E1F7880C991C880E991E8B2D992702
:1029200087FD9095880E991E80ED9FEF880E991E69
:10293000D301BD903D018B2D80538A3028F3BCE636
:10294000BB1619F0ECE4BE1629F4F4E03F2AD301DB
:10295000BD903D01BB2009F435C18B2D81568A31D4
:1029600010F0AB2D02C0AB2DA052AF34A1F0A035BA
:102970004CF4A33409F44DC0A43479F0A23409F026
:1029800056C05CC0A53549F0A83509F44EC0A33542
:1029900009F04DC004C028E052C02AE050C002E057
:1029A000402E512C4E0C5F1CF701E080F18000E0BE
:1029B00010E002C00F5F1F4FF701E00FF11F808191
:1029C0008823C1F731FE06C014C0CE01439660E2F1
:1029D0000E94EA130F5F1F4FC801019788159905E0
:1029E000A0F307C00894E11CF11CCE0143960E949D
:1029F000EA13D7016C916623A9F707C0CE0143966D
:102A000060E20E94EA130F5F1F4F08151905B0F32B
:102A100054CF12E0412E512C4E0C5F1CCE01439638
:102A2000F70160810E94EA1348CF20E108C0CE017F
:102A300043966B2D0E94EA1327013FCF22E032FE1E
:102A40000DC0B4E04B2E512C4E0C5F1CF701E08002
:102A5000F18002811381A43409F514C087010E5F4F
:102A60001F4FF70160817181A43439F428017B0183
:102A70000027F7FC0095102F05C028017B0100E01E
:102A800010E00CC017FF0AC010950095F094E09478
:102A9000E11CF11C011D111DF8E03F2ACC24DD24AE
:102AA000822F90E0A0E0B0E06D968CAF9DAFAEAF0E
:102AB000BFAF6D97C801B7016D962CAD3DAD4EAD62
:102AC0005FAD6D970E948D27A62EC801B7016D9648
:102AD0002CAD3DAD4EAD5FAD6D970E948D27C90108
:102AE000DA017C018D01E9E0EA153CF4F8E7BF1654
:102AF00011F027E001C027E2A20EE3E0F0E0EC0FC6
:102B0000FD1FEC0DFD1D20E3A20EA0820894C11C48
:102B1000D11C0097A105B10521F080E1C816D104B0
:102B200049F6832D90E033FE0AC0E3E0F0E0EC0FBD
:102B3000FD1FEC0DFD1D20820894C11CD11C80FDE1
:102B400003C0F0E2BF2E02C0E0E3BE2E76018C018E
:102B50000270107005C0CE0143966B2D0E94EA13DF
:102B60000115110541F40894E11CF11CC7010197FE
:102B70008815990580F30894C108D10803E010E096
:102B80000C0F1D1F0C0D1D1D0894C11CD11C089499
:102B9000C108D108CE014396D8016C910E94EA1376
:102BA00001501040C114D10491F708C0CE014396E2
:102BB0006B2D0E94EA130894E11CF11CE814F9043F
:102BC000A8F37BCE4D895E8957FD16C08B899C8901
:102BD000BE01675E7F4F9E012F5F3F4F0E94B51180
:102BE000892B51F42D893E8989819A8128173907CB
:102BF00019F42F89388D02C02FEF3FEFC901C45A55
:102C0000DF4F0FB6F894DEBF0FBECDBFCF91DF917F
:102C10001F910F91FF90EF90DF90CF90BF90AF90FA
:102C20009F908F907F906F905F904F903F902F90EC
:102C30000895EF92FF920F931F93DF93CF93CDB739
:102C4000DEB7C854D0400FB6F894DEBF0FBECDBF7C
:102C50008C017C836B831E821D8218861F8273E029
:102C6000E72EF12CEC0EFD1E05C00F5F1F4FC701B4
:102C70000E94EA13F80160816623B9F74D815E81F5
:102C800057FD16C08B819C81BE01675F7F4F9E01FF
:102C90002F5F3F4F0E94B511892B51F42D813E814A
:102CA00089819A812817390719F42F81388502C044
:102CB0002FEF3FEFC901C85BDF4F0FB6F894DEBFBF
:102CC0000FBECDBFCF91DF911F910F91FF90EF907D
:102CD0000895DF93CF93CDB7DEB7C854D0400FB679
:102CE000F894DEBF0FBECDBF282F7C836B831E827E
:102CF0001D8218861F82CE010396622F0E94EA135E
:102D00004D815E8157FD16C08B819C81BE01675F3E
:102D10007F4F9E012F5F3F4F0E94B511892B51F4C9
:102D20002D813E8189819A812817390719F42F81D5
:102D3000388502C02FEF3FEFC901C85BDF4F0FB6E8
:102D4000F894DEBF0FBECDBFCF91DF9108952F92D3
:102D50003F924F925F926F927F928F929F92AF922B
:102D6000BF92CF92DF92EF92FF920F931F93DF9368
:102D7000CF93CDB7DEB76A970FB6F894DEBF0FBE1C
:102D8000CDBF6C01CB01B42ED6011D921C920E94C6
:102D90003A027C0197FF03C02BE030E06DC2FC01DA
:102DA000EE0FFF1FE35EFE4F00811181011511053B
:102DB00019F42CE030E060C2F60111830083D801E1
:102DC0008C91882361F011968C910E94112580FDD1
:102DD00006C0BB2009F44BC282FD46C248C2F801BE
:102DE0001082E1828E2D0E94182580FF03C023E00F
:102DF00030E042C2BB2011F082FD36C2C80140E083
:102E000050E060E070E00E944503813021F0222410
:102E10003324210145C07E010894E11CF11CA70167
:102E20002EEB31E02E5C3F4FF801E20FF31F2253EF
:102E300030408481882329F480E090E0A0E0B0E075
:102E400004C080859185A285B385FA018193919311
:102E5000A193B193AF01205F3F4FF1E02E3F3F07B9
:102E600009F7B1E1CB2ED12CCC0EDD1ED7012D9070
:102E70003D904D905C90211431044104510411F4B3
:102E800082E007C0C801B201A1010E944503882366
:102E900079F0E4E0F0E0EE0EFF1EEC14FD0431F7F3
:102EA000833019F421E030E0E7C1882309F0E2C162
:102EB000D801DD968D919C91DE978050924009F06B
:102EC000D9C1085B1F4FF8018081918108541040DF
:102ED0004C01AA24BB2481149104A104B10449F437
:102EE0000A5A1F4FD8018D909D90AD90BC90065509
:102EF0001040F801828E938EA48EB58E0E5B1F4F0C
:102F0000D8014C9102541040F8014383842F815022
:102F1000823008F0AFC127AD2283222309F4AAC171
:102F200030E0C901019782239323892B09F0A2C1C4
:102F30000D5B1F4FD8016D907C9003541040F80139
:102F400071866086C3018F709070892B09F092C1E1
:102F50000B5B1F4FD8018D919C91055410406C0163
:102F6000EE24FF24C114D104E104F10449F40E5A03
:102F70001F4FF801C080D180E280F38002551040DD
:102F8000005C1F4FD8010D90BC91A02DBE8BAD8B66
:102F900000541040AB2B09F46DC1242F30E040E009
:102FA00050E0C501B4010E946E27698B7A8B8B8B30
:102FB0009C8B4D895E899A0140E050E02F8B388FC1
:102FC000498F5A8FA4E076946794AA95E1F743015C
:102FD000AA24BB24820E931EA41EB51E860E971E25
:102FE000A81EB91EC814D904EA04FB0408F442C19F
:102FF000C818D908EA08FB08D80112962C9130E0CD
:1030000040E050E0C701B6010E948D27C901DA01F6
:103010000097A105B10509F42DC1863FEFE09E0799
:10302000E0E0AE07E0E0BE0718F4772473940DC02B
:10303000863FFFEF9F07F0E0AF07F0E0BF0718F013
:10304000F3E07F2E02C0E2E07E2E72E0C72ED12C8C
:10305000E12CF12CC80ED91EEA1EFB1ED801569693
:10306000CD92DD92ED92FC925997F801268E378E23
:1030700040A251A28F89988DA98DBA8D820D931D82
:10308000A41DB51D82A393A3A4A3B5A3820C931C76
:10309000A41CB51C82A693A6A4A6B5A6208531853E
:1030A000F3E07F16D9F4232B09F0E4C0025A1F4F36
:1030B000F80180819181A281B3810E551040F80101
:1030C00086A397A3A0A7B1A7A701960162E0220F4C
:1030D000331F441F551F6A95D1F732C0232B09F4C3
:1030E000C9C029893A894B895C89820F931FA41F23
:1030F000B51FF80186A397A3A0A7B1A7D701C60162
:10310000880F991FAA1FBB1FF2E07F1619F49C01BC
:10311000AD0116C09C01AD012C0D3D1D4E1D5F1D66
:10312000569547953795279581E090E0A0E0B0E06F
:10313000C822D922EA22FB222C0D3D1D4E1D5F1D07
:1031400021503E4F4F4F5F4FE9E0569547953795D9
:103150002795EA95D1F7F801828D938DA48DB58DD1
:1031600082179307A407B50708F484C08FEF9FEF79
:10317000AFEFBFEF86879787A08BB18B828793874E
:10318000A487B58780E88583F3E07F1609F057C0F0
:103190000E591F4FD8018D919C91025610400197F6
:1031A00009F04DC00894211C311C411C511CC80160
:1031B000B201A1010E940103892B09F040C0F8016E
:1031C0001582005D1D4FD8018D919C9100531240D6
:1031D00085559A4AA1F5F80182A993A9A4A9B5A990
:1031E00082559245A146B14451F50A5E1D4FF80142
:1031F00080819181A281B38106511240825792470A
:10320000A144B146E1F4065E1D4FF8018081918131
:10321000A281B3810A511240F80186879787A08B5B
:10322000B18B025E1D4FF80180819181A281B38133
:103230000E511240F80182879387A487B587D80181
:103240007C9280911F019091200101969093200122
:1032500080931F0117969C938E931697F801128AFC
:10326000138A148A158A03C02AE030E005C020E0E2
:1032700030E002C02DE030E0C9016A960FB6F89444
:10328000DEBF0FBECDBFCF91DF911F910F91FF9099
:10329000EF90DF90CF90BF90AF909F908F907F90F6
:1032A0006F905F904F903F902F9008952F923F9294
:1032B0004F925F926F927F928F929F92AF92BF9246
:1032C000CF92DF92EF92FF920F931F93DF93CF93F2
:1032D00000D000D00F92CDB7DEB79A8389837D836B
:1032E0006C838A01CA01BE016F5F7F4F40E00E947C
:1032F000A716BC01F80180809180009709F0B9C041
:10330000F4012685378540895189E688F788008D44
:10331000118DD801C7010297A109B109821793073E
:10332000A407B50738F0EC81FD8120833183428307
:1033300053839FC0F401F081FB83F130D1F5AA24BF
:10334000BB24650192E0E92EF12C012D112DC40161
:10335000B801A7010E9481046F3F2FEF72072FEF82
:1033600082072FEF920719F421E030E073C061303B
:1033700071058105910519F422E030E06BC06115FB
:1033800071058105910529F40894A11CB11CC11C8B
:10339000D11C0894E11CF11C011D111DF40186894A
:1033A0009789A08DB18DE816F9060A071B0778F2F8
:1033B0004FC0F40142A053A064A075A082E3282E60
:1033C000312C280C391CAA24BB24650120E030E0F4
:1033D000E0E0F0E02115310581F4C401B301A20160
:1033E0000E9401039C010097A9F50894411C511CFF
:1033F000611C711CF10120E032E08B81823069F4A4
:1034000080819181892B29F40894A11CB11CC11CD5
:10341000D11C32962250304011C080819181A2810E
:10342000B381BF700097A105B10529F40894A11CD0
:10343000B11CC11CD11C3496245030400894E108C2
:10344000F10801091109E114F1040105110511F652
:1034500020E030E0F401A686B786C08AD18A858153
:1034600081608583EC81FD81A082B182C282D3829A
:10347000B901CB010F900F900F900F900F90CF914B
:10348000DF911F910F91FF90EF90DF90CF90BF9051
:10349000AF909F908F907F906F905F904F903F90F4
:1034A0002F900895CF92DF92EF92FF920F931F9388
:1034B000DF93CF93CDB7DEB7A4970FB6F894DEBFF6
:1034C0000FBECDBF9CA38BA36B012DE0E22EF12C90
:1034D000EC0EFD1EC701BE016D5D7F4F40E00E94F6
:1034E000A7168C010097D1F4CE0101969AA389A367
:1034F0006BA17CA1C7010E94190F8C01009771F488
:103500008F8D98A1892B19F406E010E007C0C11433
:10351000D10421F0C701B6010E94F801C801A496A8
:103520000FB6F894DEBF0FBECDBFCF91DF911F91D4
:103530000F91FF90EF90DF90CF9008950F931F931E
:10354000DF93CF93CDB7DEB760970FB6F894DEBFA9
:103550000FBECDBF8C01788B6F87009719F429E0DF
:1035600030E05EC0CE010196BE01615F7F4F40E05A
:103570000E94A7169C01009709F04FC089819A818B
:10358000F80191838083CE010396958B848B6F85A0
:103590007889C8010E94190F9C010097A9F5F801CC
:1035A000A289B389109719F11B968C911B9784FF00
:1035B00032C05A968D919C915B979C0140E050E0FF
:1035C000E981FA818081833069F454968D919C91D0
:1035D0005597A0E0B0E0DC0199278827282B392BEC
:1035E0004A2B5B2BF8012683378340875187E9817B
:1035F000FA8186819781F80193838283C80160E014
:1036000070E00E9454059C012430310521F0211501
:10361000310531F002C025E030E0F801118210825E
:10362000C90160960FB6F894DEBF0FBECDBFCF9133
:10363000DF911F910F9108953F924F925F926F9289
:103640007F928F929F92AF92BF92CF92DF92EF9232
:10365000FF920F931F93DF93CF93CDB7DEB7EA9717
:103660000FB6F894DEBF0FBECDBFFC019AAF89AF95
:103670004B0110821DE0E12EF12CEC0EFD1EC70166
:10368000BE01675C7F4F40E00E94A716009711F0D3
:103690009C01E2C0CE0101969AA389A3ED85FE8527
:1036A00082899389A489B5898B8B9C8BAD8BBE8BCA
:1036B00084015701B3E26B2E712C6C0E7D1EACE2BF
:1036C0004A2E512C4C0E5D1EFFE23F2EA2C0C501BA
:1036D00061E070E00E9454059C01009709F0A5C0CC
:1036E000C50160E070E00E9418119C01009709F08C
:1036F0009CC0AF8DB8A15A968D919C915B979C010F
:1037000040E050E0ED85FE858081833069F4549679
:103710008D919C915597A0E0B0E0DC019927882716
:10372000282B392B4A2B5B2B2B8B3C8B4D8B5E8BA9
:10373000C50160E070E00E9454059C01009709F00B
:1037400074C0C50160E070E00E9418119C010097F0
:1037500041F5AF8DB8A15A968D919C915B979C01D4
:1037600040E050E0ED85FE858081833069F4549619
:103770008D919C915597A0E0B0E0DC0199278827B6
:10378000282B392B4A2B5B2BC216D306E406F506F1
:1037900089F0C50160E070E00E94960D9C010097E1
:1037A00081F22430310519F422E030E03EC02115C9
:1037B0003105D9F5C501B3010E94F801F20120E0FD
:1037C00030E002C02F5F3F4F81918823D9F7B901C4
:1037D000C90103960817190718F421E130E025C044
:1037E000A8010BC04150504021503040A40FB51FDC
:1037F000F901E60DF71D81858C93A9ADBAAD2115B0
:10380000310581F760957095060F171FA00FB11F46
:103810003C92CB88DC88ED88FE88C114D104E10499
:10382000F10409F054CF20E030E0A9ADBAAD211584
:10383000310589F40815190519F48FE28D930BC031
:10384000E9ADFAADE00FF11F80818D930F5F1F4F3F
:1038500008151905A8F31C92C901EA960FB6F89449
:10386000DEBF0FBECDBFCF91DF911F910F91FF90B3
:10387000EF90DF90CF90BF90AF909F908F907F9010
:103880006F905F904F903F9008950F931F93DF9339
:10389000CF93CDB7DEB7A4970FB6F894DEBF0FBEB7
:1038A000CDBF9CA38BA38E01035F1F4FC801BE0138
:1038B0006D5D7F4F40E00E94A716BC01009709F0A4
:1038C0003FC0CE0101969AA389A36BA17CA1C80138
:1038D0000E94190FBC01009771F5EF8DF8A1309788
:1038E00059F4ED85FE858B899C89AD89BE89828BD3
:1038F000938BA48BB58B24C0838584FF1FC00D855B
:103900001E85828D938D9C0140E050E0D8018C9102
:10391000833059F484899589A0E0B0E0DC019927CF
:103920008827282B392B4A2B5B2BF801228B338BD2
:10393000448B558B05C08430910511F465E070E02F
:10394000CB01A4960FB6F894DEBF0FBECDBFCF91CA
:10395000DF911F910F9108952F923F925F926F9286
:103960007F928F929F92AF92BF92CF92DF92EF920F
:10397000FF920F931F93DF93CF93CDB7DEB7A4973A
:103980000FB6F894DEBF0FBECDBF3C017CA36BA386
:10399000009721F469E0262E312C16C1DC011D921E
:1039A0001C925FE1552E54228E01035F1F4F4E7112
:1039B000C801BE016D5D7F4F0E94A7161C010097D4
:1039C00009F002C1CE0101969AA389A36BA17CA143
:1039D000C8010E94190F9C01CF8CD8A0009729F430
:1039E000C114D10411F426E030E0452D50E0CA01A5
:1039F0008C719070892B09F47CC02115310589F0F8
:103A00002430310529F4CE010D960E94B9109C0195
:103A1000CF8CD8A02115310509F0F4C0B8E05B2A9D
:103A200007C0F6018385817109F0EAC052FCE5C048
:103A300053FE6EC080E090E0A9E6B5E4F60186870B
:103A40009787A08BB18B1386D6015C961D921D9231
:103A50001D921C925F979601265E3F4F5A968D915C
:103A60009C915B977C0100E010E0ED85FE858081F4
:103A7000833069F454968D919C915597A0E0B0E005
:103A8000DC0199278827E82AF92A0A2B1B2BF90140
:103A900011821082D60155961C921E925497ED8584
:103AA000FE8581E08483E114F1040105110581F1B3
:103AB00086A497A4A0A8B1A8CF01B801A7010E942D
:103AC00037079C01009709F09DC0ED85FE8508949D
:103AD000E108F10801091109E286F38604871587D8
:103AE000CF01B501A4010E9401039C01009781F060
:103AF00089C02115310509F085C0F601838584FF51
:103B000003C024E030E07EC051FE02C080FD78C0DA
:103B100053FE02C0F0E25F2AED85FE8526A537A59B
:103B200040A951A9D3015A962D933D934D935C938F
:103B30005D975F96DC92CE925E9714965C92149796
:103B400015961C92D6015A968D919C915B979C017B
:103B500040E050E08081833069F454968D919C91CF
:103B60005597A0E0B0E0DC0199278827282B392B56
:103B70004A2B5B2BD3011E962D933D934D935C9363
:103B80005197D6015C962D913D914D915C915F9737
:103B9000D3011A962D933D934D935C931D971696E2
:103BA0001D921D921D921C92199756961D921D9260
:103BB0001D921C9259971196FC93EE9386819781E2
:103BC00013969C938E931297C101A4960FB6F89406
:103BD000DEBF0FBECDBFCF91DF911F910F91FF9040
:103BE000EF90DF90CF90BF90AF909F908F907F909D
:103BF0006F905F903F902F90089528E030E002C0D2
:103C000027E030E01901E0CF1F93DF93CF9300D07E
:103C100000D000D0CDB7DEB79C838B837E836D83CD
:103C2000142F7A836983CE0101960E943A02DC0147
:103C300097FF03C02BE030E028C0FC01EE0FFF1F10
:103C4000E35EFE4F0190F081E02D309709F0108285
:103C5000EB81FC81309709F010828B819C81AA0F47
:103C6000BB1FA35EBE4F8D939C93892B61F01130D7
:103C700051F4CE010396BE016B5F7F4F40E00E947E
:103C8000A7169C0102C020E030E0C90126960FB6BD
:103C9000F894DEBF0FBECDBFCF91DF911F91089585
:103CA0000F931F93CF93DF93EC010E949B029C0123
:103CB000009709F066C08881833009F057C08D8174
:103CC000813009F053C0BE016E5C7F4FFB0180E084
:103CD00092E001C0119201972FEF8F3F9207D1F729
:103CE000C05DDD4F85E59AEA99838883C053D24051
:103CF00082E592E5A1E6B1E48AAB9BABACABBDAB90
:103D0000CA5EDD4F82E792E7A1E4B1E6888399833A
:103D1000AA83BB83C651D2408E859F85A889B98965
:103D2000C65EDD4F88839983AA83BB83CA51D24084
:103D30008A859B85AC85BD85C25EDD4F888399836E
:103D4000AA83BB83CE51D2402E8D3F8D48A159A16D
:103D50002F5F3F4F4F4F5F4F2EA73FA748AB59AB49
:103D6000898101E010E00E9428261D82898160E09F
:103D700040E050E00E949426009711F081E090E02E
:103D80009C01C901DF91CF911F910F910895EF928E
:103D9000FF920F931F93DF93CF93CDB7DEB7A49716
:103DA0000FB6F894DEBF0FBECDBF9CA38BA37B01E3
:103DB0008E01035F1F4FC801BE016D5D7F4F41E063
:103DC0000E94A7169C01009769F5CE0101969AA35F
:103DD00089A36BA17CA1C8010E94190F9C010097C7
:103DE00009F5E9A1FAA1838585FD1AC0EF8DF8A137
:103DF0003097B1F0D70116968D919C911797978BBC
:103E0000868B14968D919C911597918F808FED855F
:103E1000FE8581E08483CF010E94501E9C0102C078
:103E200026E030E0C901A4960FB6F894DEBF0FBEBD
:103E3000CDBFCF91DF911F910F91FF90EF9008952B
:103E4000CF92DF92EF92FF920F931F93DF93CF9366
:103E5000CDB7DEB7C155D0400FB6F894DEBF0FBE68
:103E6000CDBF8E01025B1F4FF80191838083F0E587
:103E7000CF2ED12CCC0EDD1EF60171836083E2E2E1
:103E8000EE2EF12CEC0EFD1EC701B80141E00E94A0
:103E9000A7169C01009709F0F6C08AA19BA199AFD3
:103EA00088AFCE0101969FAB8EABF8016081718126
:103EB000C7010E94190F9C01009709F0E4C0EEA908
:103EC000FFA9838585FF03C026E030E0DCC06CA934
:103ED0007DA96115710519F424E030E0D4C0655F57
:103EE0007F4FCE010D9645E150E00E948F018E017B
:103EF000085C1F4FC801B70146E150E00E948F01E6
:103F0000C6010E943A0297FF03C02BE030E0BBC01D
:103F1000F60160817181C8010E94190F9C01009710
:103F200019F428E030E0AFC08430910509F0ABC04F
:103F3000C8010E94B9109C01009709F0A4C0FE01BD
:103F4000E65BFF4F00811181C8010D96BE01615FE4
:103F50007F4F43E150E00E948F018D858062F80120
:103F60008387CAA0DBA081E0F6018483F801838502
:103F700084FF7AC028A539A54AA55BA5FE01FE9657
:103F800080819181A281B381281739074A075B0795
:103F900009F46AC0F801828D938D9C0140E050E0E5
:103FA000F6018081833061F4F80184899589A0E06D
:103FB000B0E0DC0199278827282B392B4A2B5B2B73
:103FC0006EEFE62E6FEFF62E6FEF062F6FEF162FC8
:103FD000E20EF31E041F151FF60186899789A08D36
:103FE000B18D0297A109B109E816F9060A071B0766
:103FF00008F047C0228130E040E050E0C801B7013E
:104000000E946E27AB01BC01F60182A593A5A4A571
:10401000B5A5480F591F6A1F7B1F41155105610542
:10402000710579F1C6010E9401039C018AA19BA13F
:104030002115310541F59C012E5A3F4FF90181812F
:104040008E3291F4FE01FE9680819181A281B3812E
:10405000F901938F828FCD01AA27BB27958B848B83
:10406000EAA1FBA181E08483CE0182960E945E0BCF
:104070009C01009741F48AA19BA10E94501E9C01C3
:1040800002C022E030E0C901CF5ADF4F0FB6F894EA
:10409000DEBF0FBECDBFCF91DF911F910F91FF907B
:1040A000EF90DF90CF900895EF92FF920F931F93C0
:1040B000DF93CF93CDB7DEB7A4970FB6F894DEBFEA
:1040C0000FBECDBF9CA38BA3E62EF42E8E01035F03
:1040D0001F4FC801BE016D5D7F4F41E00E94A716D2
:1040E0009C01009749F5CE0101969AA389A36BA183
:1040F0007CA1C8010E94190F9C010097E9F4E9A175
:10410000FAA1838585FD16C0EF8DF8A1309791F057
:104110009F2D9772892F8095238582239E21892B3D
:104120008387ED85FE8581E08483CF010E94501E48
:104130009C0102C026E030E0C901A4960FB6F894B5
:10414000DEBF0FBECDBFCF91DF911F910F91FF90CA
:10415000EF9008952F923F924F925F926F927F92CD
:104160008F929F92AF92BF92CF92DF92EF92FF9287
:104170000F931F93DF93CF93CDB7DEB7A6970FB6FC
:10418000F894DEBF0FBECDBF9CA38BA39DE0E92EAC
:10419000F12CEC0EFD1EC701BE016D5D7F4F41E0AD
:1041A0000E94A7168C01009709F023C1CE01019649
:1041B0009AA389A36BA17CA1C7010E94190F8C014E
:1041C000009761F08430910509F013C1E9A1FAA1CB
:1041D000838585FF06C006E010E00BC108E010E013
:1041E00008C18D859E8540E050E060E070E00E944F
:1041F0004D064B015C01611571058105910519F4AE
:1042000007E010E0D5C0613071058105910519F412
:1042100002E010E0CDC06F3F3FEF73073FEF830731
:104220003FEF930709F4FFC08D859E850E949B0296
:104230008C01009709F0BCC0CD84DE848EEFE82E9F
:104240008FEFF82E8FEF082F8FEF182FE80CF91C47
:104250000A1D1B1DF60186899789A08DB18D0297D5
:10426000A109B109E816F9060A071B0720F0442442
:104270005524320114C0F601228130E040E050E0C4
:10428000C801B7010E946E272B013C01F60182A5EF
:1042900093A5A4A5B5A5480E591E6A1E7B1E12E360
:1042A000E12EF12CEC0CFD1CF70180E092E001C046
:1042B000119201972FEF8F3F9207D1F7F7018BE013
:1042C00090E020E201C0219301973FEF8F3F9307D9
:1042D000D1F71EE2F60112AB80E185AF80E090E0FD
:1042E000A9E6B5E4F701868B978BA08FB18F9EA2CC
:1042F0008DA2938E828EC501AA27BB271C01958BA8
:10430000848BC7018096B70140E250E00E948F0184
:1043100023E530E0C20ED31EF60110832DEA3FEFF5
:10432000C20ED31E2B893C894D895E89ED85FE85A1
:104330008081833069F486A197A1A0A5B1A5281733
:1043400039074A075B0721F420E030E040E050E005
:10435000F601EE5AFF4F338F228FCA01AA27BB27DF
:10436000958B848BED85FE85D280CC24C3941DC0B3
:10437000ED85FE8546A657A660AA71AAC482CF0124
:104380000E949B028C01009799F4F70180E092E073
:1043900001C0119201973FEF8F3F9307D1F7089427
:1043A000411C511C611C711CDA94DD2009F73EC0D0
:1043B0008D859E85B501A4010E9437071AC0EF8D37
:1043C000F8A180E1838780E090E0A9E6B5E4868BE0
:1043D000978BA08FB18F8DA19EA1938F828F358AED
:1043E000248AED85FE8581E08483CF010E94501EE2
:1043F0008C01C801A6960FB6F894DEBF0FBECDBFE4
:10440000CF91DF911F910F91FF90EF90DF90CF90B0
:10441000BF90AF909F908F907F906F905F904F90E4
:104420003F902F90089501E010E0C2CFCE010D968D
:104430000E94B9108C01009711F2BACFCF92DF928F
:10444000EF92FF920F931F93DF93CF93CDB7DEB719
:10445000EA970FB6F894DEBF0FBECDBF9AAF89AF13
:104460008E01035F1F4FC801BE01675C7F4F41E0B3
:104470000E94A7169C01009709F07BC0CE0101960F
:104480009AA389A369AD7AADC8010E94190F9C0156
:10449000009709F06EC0E9A1FAA1838585FD04C0EB
:1044A000AF8DB8A1109719F426E030E062C01B96DA
:1044B0008C911B97282F80FF6CC081C054968D91E2
:1044C0009C915597A0E0B0E0DC0199278827E82A65
:1044D000F92A0A2B1B2B24FF6AC0E114F104010501
:1044E000110519F422E030E044C023E2C22ED12CA1
:1044F000CC0EDD1EC601BE01635F7F4F46E150E07A
:104500000E948F01E9A6FAA60BA71CA7C60162E0CC
:1045100070E00E9454059C01009759F5C60160E0C7
:1045200070E00E9418119C01009709F448C0ED85C5
:10453000FE8582899389A489B589E816F9060A0758
:104540001B07E9F12430310591F113C0E114F104A6
:104550000105110549F08D859E85B801A7010E94CE
:1045600037079C01009729F48D859E850E94501E77
:104570009C01C901EA960FB6F894DEBF0FBECDBF0D
:10458000CF91DF911F910F91FF90EF90DF90CF902F
:1045900008955A968D919C915B977C0100E010E004
:1045A000ED85FE858081833009F095CF87CFCE01E0
:1045B0000D960E945E0B9C01009741F2DACF27E036
:1045C00030E0D7CFCF93DF93EC010E946A029C01C9
:1045D0000097E1F58C8185FF39C04A8D5B8D6C8D2C
:1045E0007D8D888199810E9401039C01009771F55E
:1045F000EE8DFF8D8385806283878A859B85AC8560
:10460000BD85848F958FA68FB78F8E859F85A8894E
:10461000B989938F828FCD01AA27BB27958B848B75
:1046200080E090E0A9E6B5E4868B978BA08FB18FF0
:10463000138A128A8C818F7D8C83E881F98181E0D5
:104640008483888199810E94501E9C01C901DF9159
:10465000CF910895CF93DF93EC010E94E2229C0159
:10466000009741F4CE010E946A029C01009711F468
:1046700019821882C901DF91CF910895FC018191BF
:1046800087FF02C02A9A01C02A98299A299886FF92
:1046900002C02A9A01C02A98299A299885FF02C047
:1046A0002A9A01C02A98299A299884FF02C02A9A36
:1046B00001C02A98299A299883FF02C02A9A01C02A
:1046C0002A98299A299882FF02C02A9A01C02A981A
:1046D000299A299881FF02C02A9A01C02A98299A0A
:1046E000299880FF02C02A9A01C02A98299A2998FD
:1046F0006150704021F60895FC012A9A83B190E040
:1047000023E0969587952A95E1F78170299A299853
:10471000880F1B998F5F299A2998880F1B998F5FA3
:10472000299A2998880F1B998F5F299A2998880FB1
:104730001B998F5F299A2998880F1B998F5F299A57
:104740002998880F1B998F5F299A2998880F1B99A0
:104750008F5F299A299880836150704011F03196BB
:10476000CDCF0895EF92FF920F931F93DF93CF93D6
:104770000F92CDB7DEB708E813E17E010894E11C83
:10478000F11CC70161E070E00E947C2389818F3FAA
:1047900059F084E690E023B123B123B123B101970E
:1047A000D1F70150104069F798010115110511F07A
:1047B00021E030E0C9010F90CF91DF911F910F915F
:1047C000FF90EF900895DF93CF930F92CDB7DEB7B0
:1047D000289ACE01019661E070E00E947C230F9040
:1047E000CF91DF910895DF93CF930F92CDB7DEB7CE
:1047F0002898CE01019661E070E00E947C230E941F
:10480000B223892B19F021E030E004C00E94E32399
:1048100020E030E0C9010F90CF91DF910895AF9271
:10482000BF92CF92DF92EF92FF920F931F93DF938D
:10483000CF9300D0CDB7DEB77C016B0108EE13E05B
:104840005E010894A11CB11CC50161E070E00E94EA
:104850007C2389818F3F59F484E690E023B123B112
:1048600023B123B10197D1F70150104069F7898135
:104870008E3F19F020E030E00CC0C701B6010E9465
:104880007C23CE01019662E070E00E947C2321E04F
:1048900030E0C9010F900F90CF91DF911F910F91E0
:1048A000FF90EF90DF90CF90BF90AF900895DF9290
:1048B000EF92FF920F931F93DF93CF9300D0CDB76A
:1048C000DEB77C01D62E0E94B223892B19F420E09A
:1048D00030E028C0D9828E010F5F1F4FC80161E010
:1048E00070E00E943E238DEFD81619F421E030E0ED
:1048F00019C0C70160E072E00E943E23C80162E077
:1049000070E00E947C23C80161E070E00E947C237B
:1049100090E089818F71853009F091E081E09827DE
:10492000292F30E0C9010F900F90CF91DF911F9197
:104930000F91FF90EF90DF900895DF92EF92FF923A
:104940000F931F93DF93CF93CDB7DEB727970FB6A3
:10495000F894DEBF0FBECDBFD82E7A018B0187FF42
:104960000CC087E340E050E060E070E00E949D24CE
:10497000823008F048C08FE7D8228CE0D81661F06A
:104980000E94E3230E94F323892B11F48FEF3BC095
:10499000DD2011F425E906C088E0D81611F427E8D7
:1049A00001C021E08D2D80648A83812F9927AA2759
:1049B000BB278B83C801AA27BB278C83BB27A12FCA
:1049C000902F8F2D8D83EE822F83CE01029666E08D
:1049D00070E00E943E238CE0D81631F4CE0101969F
:1049E00061E070E00E947C231AE07E010894E11CE3
:1049F000F11CC70161E070E00E947C23898187FF80
:104A000002C01150B1F727960FB6F894DEBF0FBE63
:104A1000CDBFCF91DF911F910F91FF90EF90DF906D
:104A20000895882311F081E0089580910F01089581
:104A3000EF92FF920F931F93DF93CF9300D000D09C
:104A4000CDB7DEB7882311F013E0A6C080E197E26E
:104A500023B123B123B123B10197D1F7209A289A2A
:104A6000219A2998229A1AE07E010894E11CF11CEF
:104A7000C70161E070E00E947C231150C9F780E01B
:104A800040E050E060E070E00E949D24813009F039
:104A900078C088E04AEA51E060E070E00E949D241E
:104AA000813009F03DC0C70164E070E00E947C23C2
:104AB0008B81813009F065C08C818A3A09F061C030
:104AC00008EE13E089EA40E050E060E070E40E9404
:104AD0009D24882361F088EE93E023B123B123B1B4
:104AE00023B10197D1F70150104061F74AC08AE322
:104AF00040E050E060E070E00E949D24882309F0CF
:104B000040C0CE01019664E070E00E947C23898160
:104B100086FD03C0F4E0FF2E35C0ECE0FE2E32C06F
:104B200089EA40E050E060E070E00E949D2482301D
:104B300028F0FF24F394EE24E39404C072E0F72EEF
:104B400069EAE62E08EE13E08E2D40E050E060E0CA
:104B500070E00E949D24882361F088EE93E023B1E9
:104B600023B123B123B10197D1F70150104061F770
:104B700008C080E140E052E060E070E00E949D24C7
:104B80008111FF24F092210110E0FF2009F411E0CF
:104B900010930F010E94E323812F0F900F900F902D
:104BA0000F90CF91DF911F910F91FF90EF9008959B
:104BB000FF920F931F93CF93DF93EB01882311F0A4
:104BC00081E002C080910F0180FF03C003E010E08C
:104BD00038C08091210183FD07C089E0220F331F77
:104BE000441F551F8A95D1F70230110518F4B1E121
:104BF000FB2E02C0A2E1FA2E8F2DBA01A9010E945C
:104C00009D248823B9F4CE0160E072E00E940F2455
:104C1000892B31F00150104019F0C050DE4FF3CF16
:104C200082E1F81639F48CE040E050E060E070E09A
:104C30000E949D240E94E3230115110511F001E05B
:104C400010E0C801DF91CF911F910F91FF9008955F
:104C5000CF92DF92EF92FF920F931F93CF93DF9348
:104C6000EB0169017A01882311F081E002C0809193
:104C70000F0180FF03C003E010E04CC080912101D0
:104C800090E083FD07C029E0CC0CDD1CEE1CFF1C6E
:104C90002A95D1F70130110581F488E1B701A60109
:104CA0000E949D24882379F5CE016EEF0E9457243F
:104CB000892B49F100E010E026C086709070892BA6
:104CC00031F0A80160E070E087E90E949D2489E14D
:104CD000B701A6010E949D248823A9F4CE016CEFA0
:104CE0000E945724892B31F00150104019F0C05018
:104CF000DE4FF4CF80E090E06DEF0E945724892BC7
:104D000011F401E010E00E94E3230115110511F0F8
:104D100001E010E0C801DF91CF911F910F91FF904A
:104D2000EF90DF90CF9008950F931F93DF93CF9371
:104D3000CDB7DEB760970FB6F894DEBF0FBECDBF1C
:104D40008A01882311F081E002C080910F0180FF69
:104D500003C003E010E090C0613071F0613030F0CA
:104D6000633009F47BC004E010E084C00E94F323A8
:104D7000892B09F47DC041C089E040E050E060E04B
:104D800070E00E949D24882309F072C0CE01019634
:104D900060E170E00E940F24892B09F469C08981C9
:104DA0008295869586958370288569857A85813078
:104DB00039F530E040E050E02F73307040705070B3
:104DC000A901332722272F5F3F4F4F4F5F4F962F69
:104DD00080E0870F911DA0E0B0E0280F391F4A1F27
:104DE0005B1F6AE0220F331F441F551F6A95D1F7DE
:104DF000F801208331834283538300E010E03AC0FE
:104E0000629566956695637030E0220F331F220F1E
:104E1000331F260F311D2F5F3F4F8F8190E083702E
:104E20009070982F8827990F990F280F391F40E00D
:104E300050E08E818F706B85661F6627661F860F18
:104E40008E5F7370770F870F90E0099704C0220F71
:104E5000331F441F551F8A95D2F7CACF80E890E0D0
:104E6000A0E0B0E0F80180839183A283B383C5CF33
:104E700001E010E00E94E323C80160960FB6F894A9
:104E8000DEBF0FBECDBFCF91DF911F910F9108956F
:104E90000F931F93DF93CF93CDB7DEB7C255D240A8
:104EA0000FB6F894DEBF0FBECDBF80E880936100DF
:104EB00010926100CE01819660E171E040E00E94B5
:104EC000041E8E010F5F1F4FC80161E171E041E0D8
:104ED0000E94AC1CC8010E943701FFCF629FD00125
:104EE000739FF001829FE00DF11D649FE00DF11DA5
:104EF000929FF00D839FF00D749FF00D659FF00D54
:104F00009927729FB00DE11DF91F639FB00DE11D40
:104F1000F91FBD01CF0111240895A1E21A2EAA1B89
:104F2000BB1BFD010DC0AA1FBB1FEE1FFF1FA21759
:104F3000B307E407F50720F0A21BB30BE40BF50B56
:104F4000661F771F881F991F1A9469F760957095DF
:104F5000809590959B01AC01BD01CF010895F89417
:024F6000FFCF81
:104F6200222A2B2C3A3B3C3D3E3F5B5D7C7F00017D
:0C4F720000617564696F2E7761760000A5
:00000001FF
